{
  "contractName": "TokenFarm",
  "abi": [
    {
      "inputs": [
        {
          "internalType": "contract IERC20",
          "name": "_creoToken",
          "type": "address"
        }
      ],
      "stateMutability": "nonpayable",
      "type": "constructor"
    },
    {
      "anonymous": false,
      "inputs": [
        {
          "indexed": true,
          "internalType": "bytes32",
          "name": "id",
          "type": "bytes32"
        }
      ],
      "name": "ChainlinkCancelled",
      "type": "event"
    },
    {
      "anonymous": false,
      "inputs": [
        {
          "indexed": true,
          "internalType": "bytes32",
          "name": "id",
          "type": "bytes32"
        }
      ],
      "name": "ChainlinkFulfilled",
      "type": "event"
    },
    {
      "anonymous": false,
      "inputs": [
        {
          "indexed": true,
          "internalType": "bytes32",
          "name": "id",
          "type": "bytes32"
        }
      ],
      "name": "ChainlinkRequested",
      "type": "event"
    },
    {
      "anonymous": false,
      "inputs": [
        {
          "indexed": true,
          "internalType": "address",
          "name": "from",
          "type": "address"
        },
        {
          "indexed": true,
          "internalType": "address",
          "name": "to",
          "type": "address"
        }
      ],
      "name": "OwnershipTransferRequested",
      "type": "event"
    },
    {
      "anonymous": false,
      "inputs": [
        {
          "indexed": true,
          "internalType": "address",
          "name": "from",
          "type": "address"
        },
        {
          "indexed": true,
          "internalType": "address",
          "name": "to",
          "type": "address"
        }
      ],
      "name": "OwnershipTransferred",
      "type": "event"
    },
    {
      "anonymous": false,
      "inputs": [
        {
          "indexed": true,
          "internalType": "bytes32",
          "name": "requestId",
          "type": "bytes32"
        },
        {
          "indexed": false,
          "internalType": "uint256",
          "name": "coins",
          "type": "uint256"
        }
      ],
      "name": "RequestCoinsCalculation",
      "type": "event"
    },
    {
      "anonymous": false,
      "inputs": [
        {
          "indexed": true,
          "internalType": "bytes32",
          "name": "requestId",
          "type": "bytes32"
        },
        {
          "indexed": false,
          "internalType": "uint256",
          "name": "volume",
          "type": "uint256"
        }
      ],
      "name": "RequestVolume",
      "type": "event"
    },
    {
      "inputs": [],
      "name": "acceptOwnership",
      "outputs": [],
      "stateMutability": "nonpayable",
      "type": "function"
    },
    {
      "inputs": [],
      "name": "creoToken",
      "outputs": [
        {
          "internalType": "contract IERC20",
          "name": "",
          "type": "address"
        }
      ],
      "stateMutability": "view",
      "type": "function",
      "constant": true
    },
    {
      "inputs": [
        {
          "internalType": "address",
          "name": "",
          "type": "address"
        }
      ],
      "name": "hasProvided",
      "outputs": [
        {
          "internalType": "bool",
          "name": "",
          "type": "bool"
        }
      ],
      "stateMutability": "view",
      "type": "function",
      "constant": true
    },
    {
      "inputs": [
        {
          "internalType": "address",
          "name": "",
          "type": "address"
        }
      ],
      "name": "isProviding",
      "outputs": [
        {
          "internalType": "bool",
          "name": "",
          "type": "bool"
        }
      ],
      "stateMutability": "view",
      "type": "function",
      "constant": true
    },
    {
      "inputs": [],
      "name": "name",
      "outputs": [
        {
          "internalType": "string",
          "name": "",
          "type": "string"
        }
      ],
      "stateMutability": "view",
      "type": "function",
      "constant": true
    },
    {
      "inputs": [],
      "name": "owner",
      "outputs": [
        {
          "internalType": "address",
          "name": "",
          "type": "address"
        }
      ],
      "stateMutability": "view",
      "type": "function",
      "constant": true
    },
    {
      "inputs": [
        {
          "internalType": "uint256",
          "name": "",
          "type": "uint256"
        }
      ],
      "name": "providers",
      "outputs": [
        {
          "internalType": "address",
          "name": "",
          "type": "address"
        }
      ],
      "stateMutability": "view",
      "type": "function",
      "constant": true
    },
    {
      "inputs": [
        {
          "internalType": "address",
          "name": "to",
          "type": "address"
        }
      ],
      "name": "transferOwnership",
      "outputs": [],
      "stateMutability": "nonpayable",
      "type": "function"
    },
    {
      "inputs": [],
      "name": "volume",
      "outputs": [
        {
          "internalType": "uint256",
          "name": "",
          "type": "uint256"
        }
      ],
      "stateMutability": "view",
      "type": "function",
      "constant": true
    },
    {
      "inputs": [],
      "name": "ProvideRessource",
      "outputs": [],
      "stateMutability": "nonpayable",
      "type": "function"
    },
    {
      "inputs": [],
      "name": "StopProviding",
      "outputs": [],
      "stateMutability": "nonpayable",
      "type": "function"
    },
    {
      "inputs": [
        {
          "internalType": "string",
          "name": "s1",
          "type": "string"
        },
        {
          "internalType": "string",
          "name": "s2",
          "type": "string"
        }
      ],
      "name": "concatenate",
      "outputs": [
        {
          "internalType": "string",
          "name": "",
          "type": "string"
        }
      ],
      "stateMutability": "pure",
      "type": "function",
      "constant": true
    },
    {
      "inputs": [],
      "name": "harvest",
      "outputs": [
        {
          "internalType": "bytes32",
          "name": "requestId",
          "type": "bytes32"
        }
      ],
      "stateMutability": "nonpayable",
      "type": "function"
    },
    {
      "inputs": [
        {
          "internalType": "bytes32",
          "name": "_requestId",
          "type": "bytes32"
        },
        {
          "internalType": "uint256",
          "name": "_volume",
          "type": "uint256"
        }
      ],
      "name": "fulfill",
      "outputs": [],
      "stateMutability": "nonpayable",
      "type": "function"
    },
    {
      "inputs": [],
      "name": "withdrawLink",
      "outputs": [],
      "stateMutability": "nonpayable",
      "type": "function"
    },
    {
      "inputs": [],
      "name": "getVolume",
      "outputs": [
        {
          "internalType": "uint256",
          "name": "",
          "type": "uint256"
        }
      ],
      "stateMutability": "view",
      "type": "function",
      "constant": true
    }
  ],
  "bytecode": "0x608060405260016004556040518060400160405280601b81526020017f4372656f6d6574727920636f6d6d756e69747920636c75737465720000000000815250600890805190602001906200005692919062000429565b503480156200006457600080fd5b506040516200348f3803806200348f83398181016040528101906200008a9190620004f0565b338060008073ffffffffffffffffffffffffffffffffffffffff168273ffffffffffffffffffffffffffffffffffffffff16141562000100576040517f08c379a0000000000000000000000000000000000000000000000000000000008152600401620000f79062000570565b60405180910390fd5b81600660006101000a81548173ffffffffffffffffffffffffffffffffffffffff021916908373ffffffffffffffffffffffffffffffffffffffff160217905550600073ffffffffffffffffffffffffffffffffffffffff168173ffffffffffffffffffffffffffffffffffffffff1614620001885762000187816200026f60201b60201c565b5b50505080600960006101000a81548173ffffffffffffffffffffffffffffffffffffffff021916908373ffffffffffffffffffffffffffffffffffffffff160217905550620001f17301be23585060835e02b77ef475b0cc51aa1e0709620003a160201b60201c565b6200021673f3fbb7f3391f62c8fe53f89b41dfc8159ee9653f620003e560201b60201c565b7f6361393833363663633733313439353762386330313263373266303561656562600a81905550600a670de0b6b3a76400006001620002569190620005fd565b620002629190620005c5565b600b8190555050620007e4565b3373ffffffffffffffffffffffffffffffffffffffff168173ffffffffffffffffffffffffffffffffffffffff161415620002e1576040517f08c379a0000000000000000000000000000000000000000000000000000000008152600401620002d89062000592565b60405180910390fd5b80600760006101000a81548173ffffffffffffffffffffffffffffffffffffffff021916908373ffffffffffffffffffffffffffffffffffffffff1602179055508073ffffffffffffffffffffffffffffffffffffffff16600660009054906101000a900473ffffffffffffffffffffffffffffffffffffffff1673ffffffffffffffffffffffffffffffffffffffff167fed8889f560326eb138920d842192f0eb3dd22b4f139c87a2c57538e05bae127860405160405180910390a350565b80600260006101000a81548173ffffffffffffffffffffffffffffffffffffffff021916908373ffffffffffffffffffffffffffffffffffffffff16021790555050565b80600360006101000a81548173ffffffffffffffffffffffffffffffffffffffff021916908373ffffffffffffffffffffffffffffffffffffffff16021790555050565b8280546200043790620006b0565b90600052602060002090601f0160209004810192826200045b5760008555620004a7565b82601f106200047657805160ff1916838001178555620004a7565b82800160010185558215620004a7579182015b82811115620004a657825182559160200191906001019062000489565b5b509050620004b69190620004ba565b5090565b5b80821115620004d5576000816000905550600101620004bb565b5090565b600081519050620004ea81620007ca565b92915050565b60006020828403121562000509576200050862000773565b5b60006200051984828501620004d9565b91505092915050565b600062000531601883620005b4565b91506200053e8262000778565b602082019050919050565b600062000558601783620005b4565b91506200056582620007a1565b602082019050919050565b600060208201905081810360008301526200058b8162000522565b9050919050565b60006020820190508181036000830152620005ad8162000549565b9050919050565b600082825260208201905092915050565b6000620005d282620006a6565b9150620005df83620006a6565b925082620005f257620005f162000715565b5b828204905092915050565b60006200060a82620006a6565b91506200061783620006a6565b9250817fffffffffffffffffffffffffffffffffffffffffffffffffffffffffffffffff0483118215151615620006535762000652620006e6565b5b828202905092915050565b60006200066b8262000686565b9050919050565b60006200067f826200065e565b9050919050565b600073ffffffffffffffffffffffffffffffffffffffff82169050919050565b6000819050919050565b60006002820490506001821680620006c957607f821691505b60208210811415620006e057620006df62000744565b5b50919050565b7f4e487b7100000000000000000000000000000000000000000000000000000000600052601160045260246000fd5b7f4e487b7100000000000000000000000000000000000000000000000000000000600052601260045260246000fd5b7f4e487b7100000000000000000000000000000000000000000000000000000000600052602260045260246000fd5b600080fd5b7f43616e6e6f7420736574206f776e657220746f207a65726f0000000000000000600082015250565b7f43616e6e6f74207472616e7366657220746f2073656c66000000000000000000600082015250565b620007d58162000672565b8114620007e157600080fd5b50565b612c9b80620007f46000396000f3fe608060405234801561001057600080fd5b50600436106101005760003560e01c806359a011ba11610097578063c618a1e411610066578063c618a1e414610263578063c67bbc2414610281578063f2fde38b1461029f578063fcf4cef2146102bb57610100565b806359a011ba1461020157806379ba5097146102315780638da5cb5b1461023b5780638dc654a21461025957610100565b80634357855e116100d35780634357855e146101675780634641257d146101835780634fdc148a146101a157806350f3fc81146101d157610100565b806303da33fb1461010557806306fdde031461010f578063266001d31461012d57806331680f171461015d575b600080fd5b61010d6102d9565b005b610117610333565b60405161012491906121b5565b60405180910390f35b61014760048036038101906101429190611d3e565b6103c1565b60405161015491906121b5565b60405180910390f35b6101656103ed565b005b610181600480360381019061017c9190611cfe565b610554565b005b61018b610779565b604051610198919061217f565b60405180910390f35b6101bb60048036038101906101b69190611ca4565b61094c565b6040516101c89190612164565b60405180910390f35b6101eb60048036038101906101e69190611db6565b61096c565b6040516101f8919061205d565b60405180910390f35b61021b60048036038101906102169190611ca4565b6109ab565b6040516102289190612164565b60405180910390f35b6102396109cb565b005b610243610b62565b604051610250919061205d565b60405180910390f35b610261610b8c565b005b61026b610cf7565b6040516102789190612297565b60405180910390f35b610289610cfd565b6040516102969190612297565b60405180910390f35b6102b960048036038101906102b49190611ca4565b610d07565b005b6102c3610d1b565b6040516102d0919061219a565b60405180910390f35b6000600f60003373ffffffffffffffffffffffffffffffffffffffff1673ffffffffffffffffffffffffffffffffffffffff16815260200190815260200160002060006101000a81548160ff021916908315150217905550565b600880546103409061285b565b80601f016020809104026020016040519081016040528092919081815260200182805461036c9061285b565b80156103b95780601f1061038e576101008083540402835291602001916103b9565b820191906000526020600020905b81548152906001019060200180831161039c57829003601f168201915b505050505081565b606082826040516020016103d6929190612039565b604051602081830303815290604052905092915050565b600e60003373ffffffffffffffffffffffffffffffffffffffff1673ffffffffffffffffffffffffffffffffffffffff16815260200190815260200160002060009054906101000a900460ff166104a257600d339080600181540180825580915050600190039060005260206000200160009091909190916101000a81548173ffffffffffffffffffffffffffffffffffffffff021916908373ffffffffffffffffffffffffffffffffffffffff1602179055505b6001600f60003373ffffffffffffffffffffffffffffffffffffffff1673ffffffffffffffffffffffffffffffffffffffff16815260200190815260200160002060006101000a81548160ff0219169083151502179055506001600e60003373ffffffffffffffffffffffffffffffffffffffff1673ffffffffffffffffffffffffffffffffffffffff16815260200190815260200160002060006101000a81548160ff021916908315150217905550565b816005600082815260200190815260200160002060009054906101000a900473ffffffffffffffffffffffffffffffffffffffff1673ffffffffffffffffffffffffffffffffffffffff163373ffffffffffffffffffffffffffffffffffffffff16146105f6576040517f08c379a00000000000000000000000000000000000000000000000000000000081526004016105ed90612277565b60405180910390fd5b6005600082815260200190815260200160002060006101000a81549073ffffffffffffffffffffffffffffffffffffffff0219169055807f7cc135e0cebb02c3480ae5d74d377283180a2601f8f644edf7987b009316c63a60405160405180910390a2827f673b38182859a514d734bdfcb49d3a05c4a641dec9311d9894c9717bcb79af76836040516106899190612297565b60405180910390a2600960009054906101000a900473ffffffffffffffffffffffffffffffffffffffff1673ffffffffffffffffffffffffffffffffffffffff1663a9059cbb6010600086815260200190815260200160002060009054906101000a900473ffffffffffffffffffffffffffffffffffffffff16846040518363ffffffff1660e01b8152600401610721929190612078565b602060405180830381600087803b15801561073b57600080fd5b505af115801561074f573d6000803e3d6000fd5b505050506040513d601f19601f820116820180604052508101906107739190611cd1565b50505050565b600080610790600a5430634357855e60e01b610d41565b90506000604051806060016040528060378152602001612c2f60379139905061080a6040518060400160405280600381526020017f67657400000000000000000000000000000000000000000000000000000000008152506107fa836107f533610d72565b6103c1565b84610f359092919063ffffffff16565b6108896040518060400160405280600481526020017f70617468000000000000000000000000000000000000000000000000000000008152506040518060400160405280600581526020017f636f696e7300000000000000000000000000000000000000000000000000000081525084610f359092919063ffffffff16565b6000670de0b6b3a764000090506108e06040518060400160405280600581526020017f74696d65730000000000000000000000000000000000000000000000000000008152508285610f689092919063ffffffff16565b60006108ee84600b54610f9b565b9050336010600083815260200190815260200160002060006101000a81548173ffffffffffffffffffffffffffffffffffffffff021916908373ffffffffffffffffffffffffffffffffffffffff1602179055508094505050505090565b600e6020528060005260406000206000915054906101000a900460ff1681565b600d818154811061097c57600080fd5b906000526020600020016000915054906101000a900473ffffffffffffffffffffffffffffffffffffffff1681565b600f6020528060005260406000206000915054906101000a900460ff1681565b600760009054906101000a900473ffffffffffffffffffffffffffffffffffffffff1673ffffffffffffffffffffffffffffffffffffffff163373ffffffffffffffffffffffffffffffffffffffff1614610a5b576040517f08c379a0000000000000000000000000000000000000000000000000000000008152600401610a52906121d7565b60405180910390fd5b6000600660009054906101000a900473ffffffffffffffffffffffffffffffffffffffff16905033600660006101000a81548173ffffffffffffffffffffffffffffffffffffffff021916908373ffffffffffffffffffffffffffffffffffffffff1602179055506000600760006101000a81548173ffffffffffffffffffffffffffffffffffffffff021916908373ffffffffffffffffffffffffffffffffffffffff1602179055503373ffffffffffffffffffffffffffffffffffffffff168173ffffffffffffffffffffffffffffffffffffffff167f8be0079c531659141344cd1fd0a4f28419497f9722a3daafe3b4186f6b6457e060405160405180910390a350565b6000600660009054906101000a900473ffffffffffffffffffffffffffffffffffffffff16905090565b610b94610fd2565b6000610b9e611064565b90508073ffffffffffffffffffffffffffffffffffffffff1663a9059cbb338373ffffffffffffffffffffffffffffffffffffffff166370a08231306040518263ffffffff1660e01b8152600401610bf6919061205d565b60206040518083038186803b158015610c0e57600080fd5b505afa158015610c22573d6000803e3d6000fd5b505050506040513d601f19601f82011682018060405250810190610c469190611de3565b6040518363ffffffff1660e01b8152600401610c63929190612078565b602060405180830381600087803b158015610c7d57600080fd5b505af1158015610c91573d6000803e3d6000fd5b505050506040513d601f19601f82011682018060405250810190610cb59190611cd1565b610cf4576040517f08c379a0000000000000000000000000000000000000000000000000000000008152600401610ceb90612237565b60405180910390fd5b50565b600c5481565b6000600c54905090565b610d0f610fd2565b610d188161108e565b50565b600960009054906101000a900473ffffffffffffffffffffffffffffffffffffffff1681565b610d49611b44565b610d51611b44565b610d68858585846111bd909392919063ffffffff16565b9150509392505050565b60606000602867ffffffffffffffff811115610d9157610d90612a22565b5b6040519080825280601f01601f191660200182016040528015610dc35781602001600182028036833780820191505090505b50905060005b6014811015610f2b576000816013610de191906126d4565b6008610ded91906125ab565b6002610df9919061248d565b8573ffffffffffffffffffffffffffffffffffffffff16610e1a91906123d8565b60f81b9050600060108260f81c610e319190612409565b60f81b905060008160f81c6010610e489190612605565b8360f81c610e569190612708565b60f81b9050610e648261126d565b85856002610e7291906125ab565b81518110610e8357610e826129f3565b5b60200101907effffffffffffffffffffffffffffffffffffffffffffffffffffffffffffff1916908160001a905350610ebb8161126d565b856001866002610ecb91906125ab565b610ed5919061234b565b81518110610ee657610ee56129f3565b5b60200101907effffffffffffffffffffffffffffffffffffffffffffffffffffffffffffff1916908160001a9053505050508080610f23906128be565b915050610dc9565b5080915050919050565b610f4c8284608001516112b390919063ffffffff16565b610f638184608001516112b390919063ffffffff16565b505050565b610f7f8284608001516112b390919063ffffffff16565b610f968184608001516112d890919063ffffffff16565b505050565b6000610fca600360009054906101000a900473ffffffffffffffffffffffffffffffffffffffff168484611385565b905092915050565b600660009054906101000a900473ffffffffffffffffffffffffffffffffffffffff1673ffffffffffffffffffffffffffffffffffffffff163373ffffffffffffffffffffffffffffffffffffffff1614611062576040517f08c379a000000000000000000000000000000000000000000000000000000000815260040161105990612217565b60405180910390fd5b565b6000600260009054906101000a900473ffffffffffffffffffffffffffffffffffffffff16905090565b3373ffffffffffffffffffffffffffffffffffffffff168173ffffffffffffffffffffffffffffffffffffffff1614156110fd576040517f08c379a00000000000000000000000000000000000000000000000000000000081526004016110f490612257565b60405180910390fd5b80600760006101000a81548173ffffffffffffffffffffffffffffffffffffffff021916908373ffffffffffffffffffffffffffffffffffffffff1602179055508073ffffffffffffffffffffffffffffffffffffffff16600660009054906101000a900473ffffffffffffffffffffffffffffffffffffffff1673ffffffffffffffffffffffffffffffffffffffff167fed8889f560326eb138920d842192f0eb3dd22b4f139c87a2c57538e05bae127860405160405180910390a350565b6111c5611b44565b6111d58560800151610100611451565b508385600001818152505082856020019073ffffffffffffffffffffffffffffffffffffffff16908173ffffffffffffffffffffffffffffffffffffffff16815250508185604001907bffffffffffffffffffffffffffffffffffffffffffffffffffffffff191690817bffffffffffffffffffffffffffffffffffffffffffffffffffffffff191681525050849050949350505050565b6000600a8260f81c60ff1610156112985760308260f81c61128e91906123a1565b60f81b90506112ae565b60578260f81c6112a891906123a1565b60f81b90505b919050565b6112c082600383516114bb565b6112d3818361164090919063ffffffff16565b505050565b7fffffffffffffffffffffffffffffffffffffffffffffffff000000000000000081121561130f5761130a8282611662565b611381565b67ffffffffffffffff81131561132e5761132982826116d9565b611380565b6000811261134757611342826000836114bb565b61137f565b61137e826001837fffffffffffffffffffffffffffffffffffffffffffffffffffffffffffffffff6113799190612640565b6114bb565b5b5b5b5050565b600080600454905060018161139a919061234b565b6004819055506000634042994660e01b60008087600001513089604001518760018c60800151600001516040516024016113db9897969594939291906120a1565b604051602081830303815290604052907bffffffffffffffffffffffffffffffffffffffffffffffffffffffff19166020820180517bffffffffffffffffffffffffffffffffffffffffffffffffffffffff8381831617835250505050905061144686838684611725565b925050509392505050565b611459611bb1565b60006020836114689190612935565b146114945760208261147a9190612935565b602061148691906126d4565b82611491919061234b565b91505b81836020018181525050604051808452600081528281016020016040525082905092915050565b60178167ffffffffffffffff16116114f2576114ec8160058460ff16901b60ff1617846118c990919063ffffffff16565b5061163b565b60ff8167ffffffffffffffff161161154857611521601860058460ff16901b17846118c990919063ffffffff16565b506115428167ffffffffffffffff166001856118e99092919063ffffffff16565b5061163a565b61ffff8167ffffffffffffffff161161159f57611578601960058460ff16901b17846118c990919063ffffffff16565b506115998167ffffffffffffffff166002856118e99092919063ffffffff16565b50611639565b63ffffffff8167ffffffffffffffff16116115f8576115d1601a60058460ff16901b17846118c990919063ffffffff16565b506115f28167ffffffffffffffff166004856118e99092919063ffffffff16565b50611638565b611615601b60058460ff16901b17846118c990919063ffffffff16565b506116368167ffffffffffffffff166008856118e99092919063ffffffff16565b505b5b5b5b505050565b611648611bb1565b61165a8384600001515184855161190b565b905092915050565b61168060036005600660ff16901b17836118c990919063ffffffff16565b506116d582827fffffffffffffffffffffffffffffffffffffffffffffffffffffffffffffffff6116b19190612640565b6040516020016116c19190612297565b6040516020818303038152906040526119fa565b5050565b6116f760026005600660ff16901b17836118c990919063ffffffff16565b50611721828260405160200161170d9190612297565b6040516020818303038152906040526119fa565b5050565b6000308460405160200161173a92919061200d565b604051602081830303815290604052805190602001209050846005600083815260200190815260200160002060006101000a81548173ffffffffffffffffffffffffffffffffffffffff021916908373ffffffffffffffffffffffffffffffffffffffff160217905550807fb5e6e01e79f91267dc17b4e6314d5d4d03593d2ceee0fbb452b750bd70ea5af960405160405180910390a2600260009054906101000a900473ffffffffffffffffffffffffffffffffffffffff1673ffffffffffffffffffffffffffffffffffffffff16634000aea08685856040518463ffffffff1660e01b815260040161183093929190612126565b602060405180830381600087803b15801561184a57600080fd5b505af115801561185e573d6000803e3d6000fd5b505050506040513d601f19601f820116820180604052508101906118829190611cd1565b6118c1576040517f08c379a00000000000000000000000000000000000000000000000000000000081526004016118b8906121f7565b60405180910390fd5b949350505050565b6118d1611bb1565b6118e18384600001515184611a1f565b905092915050565b6118f1611bb1565b611902848560000151518585611a76565b90509392505050565b611913611bb1565b825182111561192157600080fd5b84602001518285611932919061234b565b11156119675761196685600261195788602001518887611952919061234b565b611b04565b61196191906125ab565b611b20565b5b6000808651805187602083010193508088870111156119865787860182525b60208701925050505b602084106119cd57805182526020826119a8919061234b565b91506020816119b7919061234b565b90506020846119c691906126d4565b935061198f565b60006001856020036101000a03905080198251168184511681811785525050508692505050949350505050565b611a0782600283516114bb565b611a1a818361164090919063ffffffff16565b505050565b611a27611bb1565b83602001518310611a4d57611a4c8460028660200151611a4791906125ab565b611b20565b5b8351805160208583010184815381861415611a69576001820183525b5050508390509392505050565b611a7e611bb1565b84602001518483611a8f919061234b565b1115611ab757611ab68560028685611aa7919061234b565b611ab191906125ab565b611b20565b5b6000600183610100611ac9919061248d565b611ad391906126d4565b90508551838682010185831982511617815281518588011115611af65784870182525b505085915050949350505050565b600081831115611b1657829050611b1a565b8190505b92915050565b600082600001519050611b338383611451565b50611b3e8382611640565b50505050565b6040518060a0016040528060008019168152602001600073ffffffffffffffffffffffffffffffffffffffff16815260200160007bffffffffffffffffffffffffffffffffffffffffffffffffffffffff1916815260200160008152602001611bab611bb1565b81525090565b604051806040016040528060608152602001600081525090565b6000611bde611bd9846122d7565b6122b2565b905082815260208101848484011115611bfa57611bf9612a56565b5b611c05848285612819565b509392505050565b600081359050611c1c81612bd2565b92915050565b600081519050611c3181612be9565b92915050565b600081359050611c4681612c00565b92915050565b600082601f830112611c6157611c60612a51565b5b8135611c71848260208601611bcb565b91505092915050565b600081359050611c8981612c17565b92915050565b600081519050611c9e81612c17565b92915050565b600060208284031215611cba57611cb9612a60565b5b6000611cc884828501611c0d565b91505092915050565b600060208284031215611ce757611ce6612a60565b5b6000611cf584828501611c22565b91505092915050565b60008060408385031215611d1557611d14612a60565b5b6000611d2385828601611c37565b9250506020611d3485828601611c7a565b9150509250929050565b60008060408385031215611d5557611d54612a60565b5b600083013567ffffffffffffffff811115611d7357611d72612a5b565b5b611d7f85828601611c4c565b925050602083013567ffffffffffffffff811115611da057611d9f612a5b565b5b611dac85828601611c4c565b9150509250929050565b600060208284031215611dcc57611dcb612a60565b5b6000611dda84828501611c7a565b91505092915050565b600060208284031215611df957611df8612a60565b5b6000611e0784828501611c8f565b91505092915050565b611e198161273c565b82525050565b611e288161274e565b82525050565b611e378161275a565b82525050565b611e4681612764565b82525050565b6000611e5782612308565b611e61818561231e565b9350611e71818560208601612828565b611e7a81612a65565b840191505092915050565b611e96611e91826127d1565b612907565b82525050565b611ea5816127e3565b82525050565b6000611eb682612313565b611ec0818561232f565b9350611ed0818560208601612828565b611ed981612a65565b840191505092915050565b6000611eef82612313565b611ef98185612340565b9350611f09818560208601612828565b80840191505092915050565b6000611f2260168361232f565b9150611f2d82612a90565b602082019050919050565b6000611f4560238361232f565b9150611f5082612ab9565b604082019050919050565b6000611f6860168361232f565b9150611f7382612b08565b602082019050919050565b6000611f8b60128361232f565b9150611f9682612b31565b602082019050919050565b6000611fae60178361232f565b9150611fb982612b5a565b602082019050919050565b6000611fd160288361232f565b9150611fdc82612b83565b604082019050919050565b611ff0816127ba565b82525050565b612007612002826127ba565b61292b565b82525050565b60006120198285611e85565b6014820191506120298284611ff6565b6020820191508190509392505050565b60006120458285611ee4565b91506120518284611ee4565b91508190509392505050565b60006020820190506120726000830184611e10565b92915050565b600060408201905061208d6000830185611e10565b61209a6020830184611fe7565b9392505050565b6000610100820190506120b7600083018b611e10565b6120c4602083018a611fe7565b6120d16040830189611e2e565b6120de6060830188611e10565b6120eb6080830187611e3d565b6120f860a0830186611fe7565b61210560c0830185611fe7565b81810360e08301526121178184611e4c565b90509998505050505050505050565b600060608201905061213b6000830186611e10565b6121486020830185611fe7565b818103604083015261215a8184611e4c565b9050949350505050565b60006020820190506121796000830184611e1f565b92915050565b60006020820190506121946000830184611e2e565b92915050565b60006020820190506121af6000830184611e9c565b92915050565b600060208201905081810360008301526121cf8184611eab565b905092915050565b600060208201905081810360008301526121f081611f15565b9050919050565b6000602082019050818103600083015261221081611f38565b9050919050565b6000602082019050818103600083015261223081611f5b565b9050919050565b6000602082019050818103600083015261225081611f7e565b9050919050565b6000602082019050818103600083015261227081611fa1565b9050919050565b6000602082019050818103600083015261229081611fc4565b9050919050565b60006020820190506122ac6000830184611fe7565b92915050565b60006122bc6122cd565b90506122c8828261288d565b919050565b6000604051905090565b600067ffffffffffffffff8211156122f2576122f1612a22565b5b6122fb82612a65565b9050602081019050919050565b600081519050919050565b600081519050919050565b600082825260208201905092915050565b600082825260208201905092915050565b600081905092915050565b6000612356826127ba565b9150612361836127ba565b9250827fffffffffffffffffffffffffffffffffffffffffffffffffffffffffffffffff0382111561239657612395612966565b5b828201905092915050565b60006123ac826127c4565b91506123b7836127c4565b92508260ff038211156123cd576123cc612966565b5b828201905092915050565b60006123e3826127ba565b91506123ee836127ba565b9250826123fe576123fd612995565b5b828204905092915050565b6000612414826127c4565b915061241f836127c4565b92508261242f5761242e612995565b5b828204905092915050565b6000808291508390505b6001851115612484578086048111156124605761245f612966565b5b600185161561246f5780820291505b808102905061247d85612a83565b9450612444565b94509492505050565b6000612498826127ba565b91506124a3836127ba565b92506124d07fffffffffffffffffffffffffffffffffffffffffffffffffffffffffffffffff84846124d8565b905092915050565b6000826124e857600190506125a4565b816124f657600090506125a4565b816001811461250c576002811461251657612545565b60019150506125a4565b60ff84111561252857612527612966565b5b8360020a91508482111561253f5761253e612966565b5b506125a4565b5060208310610133831016604e8410600b841016171561257a5782820a90508381111561257557612574612966565b5b6125a4565b612587848484600161243a565b9250905081840481111561259e5761259d612966565b5b81810290505b9392505050565b60006125b6826127ba565b91506125c1836127ba565b9250817fffffffffffffffffffffffffffffffffffffffffffffffffffffffffffffffff04831182151516156125fa576125f9612966565b5b828202905092915050565b6000612610826127c4565b915061261b836127c4565b92508160ff048311821515161561263557612634612966565b5b828202905092915050565b600061264b82612790565b915061265683612790565b9250827f80000000000000000000000000000000000000000000000000000000000000000182126000841215161561269157612690612966565b5b827f7fffffffffffffffffffffffffffffffffffffffffffffffffffffffffffffff0182136000841216156126c9576126c8612966565b5b828203905092915050565b60006126df826127ba565b91506126ea836127ba565b9250828210156126fd576126fc612966565b5b828203905092915050565b6000612713826127c4565b915061271e836127c4565b92508282101561273157612730612966565b5b828203905092915050565b60006127478261279a565b9050919050565b60008115159050919050565b6000819050919050565b60007fffffffff0000000000000000000000000000000000000000000000000000000082169050919050565b6000819050919050565b600073ffffffffffffffffffffffffffffffffffffffff82169050919050565b6000819050919050565b600060ff82169050919050565b60006127dc826127f5565b9050919050565b60006127ee826127f5565b9050919050565b600061280082612807565b9050919050565b60006128128261279a565b9050919050565b82818337600083830152505050565b60005b8381101561284657808201518184015260208101905061282b565b83811115612855576000848401525b50505050565b6000600282049050600182168061287357607f821691505b60208210811415612887576128866129c4565b5b50919050565b61289682612a65565b810181811067ffffffffffffffff821117156128b5576128b4612a22565b5b80604052505050565b60006128c9826127ba565b91507fffffffffffffffffffffffffffffffffffffffffffffffffffffffffffffffff8214156128fc576128fb612966565b5b600182019050919050565b600061291282612919565b9050919050565b600061292482612a76565b9050919050565b6000819050919050565b6000612940826127ba565b915061294b836127ba565b92508261295b5761295a612995565b5b828206905092915050565b7f4e487b7100000000000000000000000000000000000000000000000000000000600052601160045260246000fd5b7f4e487b7100000000000000000000000000000000000000000000000000000000600052601260045260246000fd5b7f4e487b7100000000000000000000000000000000000000000000000000000000600052602260045260246000fd5b7f4e487b7100000000000000000000000000000000000000000000000000000000600052603260045260246000fd5b7f4e487b7100000000000000000000000000000000000000000000000000000000600052604160045260246000fd5b600080fd5b600080fd5b600080fd5b600080fd5b6000601f19601f8301169050919050565b60008160601b9050919050565b60008160011c9050919050565b7f4d7573742062652070726f706f736564206f776e657200000000000000000000600082015250565b7f756e61626c6520746f207472616e73666572416e6443616c6c20746f206f726160008201527f636c650000000000000000000000000000000000000000000000000000000000602082015250565b7f4f6e6c792063616c6c61626c65206279206f776e657200000000000000000000600082015250565b7f556e61626c6520746f207472616e736665720000000000000000000000000000600082015250565b7f43616e6e6f74207472616e7366657220746f2073656c66000000000000000000600082015250565b7f536f75726365206d75737420626520746865206f7261636c65206f662074686560008201527f2072657175657374000000000000000000000000000000000000000000000000602082015250565b612bdb8161273c565b8114612be657600080fd5b50565b612bf28161274e565b8114612bfd57600080fd5b50565b612c098161275a565b8114612c1457600080fd5b50565b612c20816127ba565b8114612c2b57600080fd5b5056fe68747470733a2f2f61667465726e6f6f6e2d686561646c616e642d33323435362e6865726f6b756170702e636f6d2f77616c6c6574732fa264697066735822122081f51178e1c8140b7de9d2477e63ba510bbe9c06ab37338acf76b238035f4d9764736f6c63430008070033",
  "immutableReferences": {},
  "source": "// SPDX-License-Identifier: MIT\r\npragma solidity ^0.8.7;\r\n\r\nimport \"@openzeppelin/contracts/token/ERC20/IERC20.sol\";\r\n\r\nimport '@chainlink/contracts/src/v0.8/ChainlinkClient.sol';\r\nimport '@chainlink/contracts/src/v0.8/ConfirmedOwner.sol';\r\n\r\ncontract TokenFarm is ChainlinkClient, ConfirmedOwner {\r\n    using Chainlink for Chainlink.Request;\r\n    event RequestCoinsCalculation(bytes32 indexed requestId, uint256 coins);\r\n    string public name = \"Creometry community cluster\";\r\n    IERC20 public creoToken;\r\n    bytes32 private jobId;\r\n    uint256 private fee;\r\n    uint256 public volume;\r\n    event RequestVolume(bytes32 indexed requestId, uint256 volume);\r\n\r\n    address[] public providers;\r\n    mapping(address => bool) public hasProvided;\r\n    mapping(address => bool) public isProviding;\r\n    mapping(bytes32 => address) requesters;\r\n\r\n    constructor(IERC20 _creoToken)  ConfirmedOwner(msg.sender) {\r\n        creoToken = IERC20(_creoToken);\r\n        setChainlinkToken(0x01BE23585060835E02B77ef475b0Cc51aA1e0709);\r\n        setChainlinkOracle(0xf3FBB7f3391F62C8fe53f89B41dFC8159EE9653f);\r\n        jobId = 'ca98366cc7314957b8c012c72f05aeeb';\r\n        fee = (1 * LINK_DIVISIBILITY) / 10; // 0,1 * 10**18 (Varies by network and job)\r\n    }\r\n\r\n    function ProvideRessource() public {\r\n\r\n        // before this we will check our api to test if this address really exists or no.\r\n        if(!hasProvided[msg.sender]) {\r\n            providers.push(msg.sender);\r\n        }\r\n\r\n        // Update Providing status\r\n        isProviding[msg.sender] = true;\r\n        hasProvided[msg.sender] = true;\r\n    }\r\n\r\n    function StopProviding() public {\r\n\r\n        // Update Provider status\r\n        isProviding[msg.sender] = false;\r\n    }\r\n    function toAsciiString(address x) internal pure returns (string memory) {\r\n        bytes memory s = new bytes(40);\r\n        for (uint i = 0; i < 20; i++) {\r\n            bytes1 b = bytes1(uint8(uint(uint160(x)) / (2**(8*(19 - i)))));\r\n            bytes1 hi = bytes1(uint8(b) / 16);\r\n            bytes1 lo = bytes1(uint8(b) - 16 * uint8(hi));\r\n            s[2*i] = char(hi);\r\n            s[2*i+1] = char(lo);            \r\n        }\r\n        return string(s);\r\n    }\r\n    function char(bytes1 b) internal pure returns (bytes1 c) {\r\n        if (uint8(b) < 10) return bytes1(uint8(b) + 0x30);\r\n        else return bytes1(uint8(b) + 0x57);\r\n}\r\n    function concatenate(string memory s1, string memory s2) public pure returns (string memory) {\r\n        return string(abi.encodePacked(s1, s2));\r\n    }\r\n\r\n    function harvest() public returns (bytes32 requestId) {\r\n        //1) check if it's a valid address (msg.sender in isProviding.)\r\n\r\n        //2)launch the request.\r\n        Chainlink.Request memory req = buildChainlinkRequest(jobId, address(this), this.fulfill.selector);\r\n        string memory url=\"https://afternoon-headland-32456.herokuapp.com/wallets/\";\r\n\r\n        // Set the URL to perform the GET request on\r\n        req.add('get', concatenate(url,toAsciiString(msg.sender)));\r\n\r\n        // Set the path to find the desired data in the API response, where the response format is:\r\n        // {\"RAW\":\r\n        //   {\"ETH\":\r\n        //    {\"USD\":\r\n        //     {\r\n        //      \"VOLUME24HOUR\": xxx.xxx,\r\n        //     }\r\n        //    }\r\n        //   }\r\n        //  }\r\n        // request.add(\"path\", \"RAW.ETH.USD.VOLUME24HOUR\"); // Chainlink nodes prior to 1.0.0 support this format\r\n        req.add('path', \"coins\"); // Chainlink nodes 1.0.0 and later support this format\r\n\r\n        // Multiply the result by 1000000000000000000 to remove decimals\r\n        int256 timesAmount = 10**18;\r\n        req.addInt('times', timesAmount);\r\n\r\n        // Sends the request\r\n        bytes32 _requestId = sendChainlinkRequest(req,fee);\r\n        requesters[_requestId]=msg.sender;\r\n        return _requestId;\r\n    }\r\n    function fulfill(bytes32 _requestId, uint256 _volume) public recordChainlinkFulfillment(_requestId) {\r\n        emit RequestVolume(_requestId, _volume);\r\n        // transferring the amount that came from the server.\r\n        creoToken.transfer(requesters[_requestId], _volume);\r\n        \r\n    }\r\n    /**\r\n    * Allow withdraw of Link tokens from the contract\r\n     */\r\n    function withdrawLink() public onlyOwner {\r\n        LinkTokenInterface link = LinkTokenInterface(chainlinkTokenAddress());\r\n        require(link.transfer(msg.sender, link.balanceOf(address(this))), 'Unable to transfer');\r\n    }\r\n    function getVolume() public view returns(uint256) {\r\n        return volume;\r\n    }\r\n\r\n}",
  "sourcePath": "C:\\Users\\moham\\OneDrive\\Desktop\\blockchaindev\\complete_project\\src\\contracts\\TokenFarm.sol",
  "compiler": {
    "name": "solc",
    "version": "0.8.7+commit.e28d00a7.Emscripten.clang"
  },
  "schemaVersion": "3.4.8",
  "updatedAt": "2022-07-23T10:44:04.401Z",
  "networkType": "ethereum",
  "devdoc": {
    "kind": "dev",
    "methods": {},
    "version": 1
  },
  "userdoc": {
    "kind": "user",
    "methods": {
      "acceptOwnership()": {
        "notice": "Allows an ownership transfer to be completed by the recipient."
      },
      "owner()": {
        "notice": "Get the current owner"
      },
      "transferOwnership(address)": {
        "notice": "Allows an owner to begin transferring ownership to a new address, pending."
      },
      "withdrawLink()": {
        "notice": "Allow withdraw of Link tokens from the contract"
      }
    },
    "version": 1
  }
}